{
	"data": {
		"bytecode": {
			"linkReferences": {},
			"object": "60806040526032600055603c60015534801561001a57600080fd5b5061035e8061002a6000396000f3fe608060405234801561001057600080fd5b50600436106100625760003560e01c806315d4266c146100675780633b9eac4b146100855780634f2be91f146100a357806358931c46146100c1578063c54124be146100df578063f9fa48c3146100fd575b600080fd5b61006f61011b565b60405161007c9190610190565b60405180910390f35b61008d610121565b60405161009a9190610190565b60405180910390f35b6100ab610127565b6040516100b89190610190565b60405180910390f35b6100c961013e565b6040516100d69190610190565b60405180910390f35b6100e7610155565b6040516100f49190610190565b60405180910390f35b61010561016b565b6040516101129190610190565b60405180910390f35b60015481565b60005481565b600060015460005461013991906101ab565b905090565b60006001546000546101509190610232565b905090565b60008054600154610166919061028c565b905090565b6000805460015461017c9190610201565b905090565b61018a816102c0565b82525050565b60006020820190506101a56000830184610181565b92915050565b60006101b6826102c0565b91506101c1836102c0565b9250827fffffffffffffffffffffffffffffffffffffffffffffffffffffffffffffffff038211156101f6576101f56102ca565b5b828201905092915050565b600061020c826102c0565b9150610217836102c0565b925082610227576102266102f9565b5b828204905092915050565b600061023d826102c0565b9150610248836102c0565b9250817fffffffffffffffffffffffffffffffffffffffffffffffffffffffffffffffff0483118215151615610281576102806102ca565b5b828202905092915050565b6000610297826102c0565b91506102a2836102c0565b9250828210156102b5576102b46102ca565b5b828203905092915050565b6000819050919050565b7f4e487b7100000000000000000000000000000000000000000000000000000000600052601160045260246000fd5b7f4e487b7100000000000000000000000000000000000000000000000000000000600052601260045260246000fdfea264697066735822122002ffba17b793f3a38e44063b3d4763bcca446fcfb4a6a2876ff14e991a162aad64736f6c63430008000033",
			"opcodes": "PUSH1 0x80 PUSH1 0x40 MSTORE PUSH1 0x32 PUSH1 0x0 SSTORE PUSH1 0x3C PUSH1 0x1 SSTORE CALLVALUE DUP1 ISZERO PUSH2 0x1A JUMPI PUSH1 0x0 DUP1 REVERT JUMPDEST POP PUSH2 0x35E DUP1 PUSH2 0x2A PUSH1 0x0 CODECOPY PUSH1 0x0 RETURN INVALID PUSH1 0x80 PUSH1 0x40 MSTORE CALLVALUE DUP1 ISZERO PUSH2 0x10 JUMPI PUSH1 0x0 DUP1 REVERT JUMPDEST POP PUSH1 0x4 CALLDATASIZE LT PUSH2 0x62 JUMPI PUSH1 0x0 CALLDATALOAD PUSH1 0xE0 SHR DUP1 PUSH4 0x15D4266C EQ PUSH2 0x67 JUMPI DUP1 PUSH4 0x3B9EAC4B EQ PUSH2 0x85 JUMPI DUP1 PUSH4 0x4F2BE91F EQ PUSH2 0xA3 JUMPI DUP1 PUSH4 0x58931C46 EQ PUSH2 0xC1 JUMPI DUP1 PUSH4 0xC54124BE EQ PUSH2 0xDF JUMPI DUP1 PUSH4 0xF9FA48C3 EQ PUSH2 0xFD JUMPI JUMPDEST PUSH1 0x0 DUP1 REVERT JUMPDEST PUSH2 0x6F PUSH2 0x11B JUMP JUMPDEST PUSH1 0x40 MLOAD PUSH2 0x7C SWAP2 SWAP1 PUSH2 0x190 JUMP JUMPDEST PUSH1 0x40 MLOAD DUP1 SWAP2 SUB SWAP1 RETURN JUMPDEST PUSH2 0x8D PUSH2 0x121 JUMP JUMPDEST PUSH1 0x40 MLOAD PUSH2 0x9A SWAP2 SWAP1 PUSH2 0x190 JUMP JUMPDEST PUSH1 0x40 MLOAD DUP1 SWAP2 SUB SWAP1 RETURN JUMPDEST PUSH2 0xAB PUSH2 0x127 JUMP JUMPDEST PUSH1 0x40 MLOAD PUSH2 0xB8 SWAP2 SWAP1 PUSH2 0x190 JUMP JUMPDEST PUSH1 0x40 MLOAD DUP1 SWAP2 SUB SWAP1 RETURN JUMPDEST PUSH2 0xC9 PUSH2 0x13E JUMP JUMPDEST PUSH1 0x40 MLOAD PUSH2 0xD6 SWAP2 SWAP1 PUSH2 0x190 JUMP JUMPDEST PUSH1 0x40 MLOAD DUP1 SWAP2 SUB SWAP1 RETURN JUMPDEST PUSH2 0xE7 PUSH2 0x155 JUMP JUMPDEST PUSH1 0x40 MLOAD PUSH2 0xF4 SWAP2 SWAP1 PUSH2 0x190 JUMP JUMPDEST PUSH1 0x40 MLOAD DUP1 SWAP2 SUB SWAP1 RETURN JUMPDEST PUSH2 0x105 PUSH2 0x16B JUMP JUMPDEST PUSH1 0x40 MLOAD PUSH2 0x112 SWAP2 SWAP1 PUSH2 0x190 JUMP JUMPDEST PUSH1 0x40 MLOAD DUP1 SWAP2 SUB SWAP1 RETURN JUMPDEST PUSH1 0x1 SLOAD DUP2 JUMP JUMPDEST PUSH1 0x0 SLOAD DUP2 JUMP JUMPDEST PUSH1 0x0 PUSH1 0x1 SLOAD PUSH1 0x0 SLOAD PUSH2 0x139 SWAP2 SWAP1 PUSH2 0x1AB JUMP JUMPDEST SWAP1 POP SWAP1 JUMP JUMPDEST PUSH1 0x0 PUSH1 0x1 SLOAD PUSH1 0x0 SLOAD PUSH2 0x150 SWAP2 SWAP1 PUSH2 0x232 JUMP JUMPDEST SWAP1 POP SWAP1 JUMP JUMPDEST PUSH1 0x0 DUP1 SLOAD PUSH1 0x1 SLOAD PUSH2 0x166 SWAP2 SWAP1 PUSH2 0x28C JUMP JUMPDEST SWAP1 POP SWAP1 JUMP JUMPDEST PUSH1 0x0 DUP1 SLOAD PUSH1 0x1 SLOAD PUSH2 0x17C SWAP2 SWAP1 PUSH2 0x201 JUMP JUMPDEST SWAP1 POP SWAP1 JUMP JUMPDEST PUSH2 0x18A DUP2 PUSH2 0x2C0 JUMP JUMPDEST DUP3 MSTORE POP POP JUMP JUMPDEST PUSH1 0x0 PUSH1 0x20 DUP3 ADD SWAP1 POP PUSH2 0x1A5 PUSH1 0x0 DUP4 ADD DUP5 PUSH2 0x181 JUMP JUMPDEST SWAP3 SWAP2 POP POP JUMP JUMPDEST PUSH1 0x0 PUSH2 0x1B6 DUP3 PUSH2 0x2C0 JUMP JUMPDEST SWAP2 POP PUSH2 0x1C1 DUP4 PUSH2 0x2C0 JUMP JUMPDEST SWAP3 POP DUP3 PUSH32 0xFFFFFFFFFFFFFFFFFFFFFFFFFFFFFFFFFFFFFFFFFFFFFFFFFFFFFFFFFFFFFFFF SUB DUP3 GT ISZERO PUSH2 0x1F6 JUMPI PUSH2 0x1F5 PUSH2 0x2CA JUMP JUMPDEST JUMPDEST DUP3 DUP3 ADD SWAP1 POP SWAP3 SWAP2 POP POP JUMP JUMPDEST PUSH1 0x0 PUSH2 0x20C DUP3 PUSH2 0x2C0 JUMP JUMPDEST SWAP2 POP PUSH2 0x217 DUP4 PUSH2 0x2C0 JUMP JUMPDEST SWAP3 POP DUP3 PUSH2 0x227 JUMPI PUSH2 0x226 PUSH2 0x2F9 JUMP JUMPDEST JUMPDEST DUP3 DUP3 DIV SWAP1 POP SWAP3 SWAP2 POP POP JUMP JUMPDEST PUSH1 0x0 PUSH2 0x23D DUP3 PUSH2 0x2C0 JUMP JUMPDEST SWAP2 POP PUSH2 0x248 DUP4 PUSH2 0x2C0 JUMP JUMPDEST SWAP3 POP DUP2 PUSH32 0xFFFFFFFFFFFFFFFFFFFFFFFFFFFFFFFFFFFFFFFFFFFFFFFFFFFFFFFFFFFFFFFF DIV DUP4 GT DUP3 ISZERO ISZERO AND ISZERO PUSH2 0x281 JUMPI PUSH2 0x280 PUSH2 0x2CA JUMP JUMPDEST JUMPDEST DUP3 DUP3 MUL SWAP1 POP SWAP3 SWAP2 POP POP JUMP JUMPDEST PUSH1 0x0 PUSH2 0x297 DUP3 PUSH2 0x2C0 JUMP JUMPDEST SWAP2 POP PUSH2 0x2A2 DUP4 PUSH2 0x2C0 JUMP JUMPDEST SWAP3 POP DUP3 DUP3 LT ISZERO PUSH2 0x2B5 JUMPI PUSH2 0x2B4 PUSH2 0x2CA JUMP JUMPDEST JUMPDEST DUP3 DUP3 SUB SWAP1 POP SWAP3 SWAP2 POP POP JUMP JUMPDEST PUSH1 0x0 DUP2 SWAP1 POP SWAP2 SWAP1 POP JUMP JUMPDEST PUSH32 0x4E487B7100000000000000000000000000000000000000000000000000000000 PUSH1 0x0 MSTORE PUSH1 0x11 PUSH1 0x4 MSTORE PUSH1 0x24 PUSH1 0x0 REVERT JUMPDEST PUSH32 0x4E487B7100000000000000000000000000000000000000000000000000000000 PUSH1 0x0 MSTORE PUSH1 0x12 PUSH1 0x4 MSTORE PUSH1 0x24 PUSH1 0x0 REVERT INVALID LOG2 PUSH5 0x6970667358 0x22 SLT KECCAK256 MUL SELFDESTRUCT 0xBA OR 0xB7 SWAP4 RETURN LOG3 DUP15 DIFFICULTY MOD EXTCODESIZE RETURNDATASIZE SELFBALANCE PUSH4 0xBCCA446F 0xCF 0xB4 0xA6 LOG2 DUP8 PUSH16 0xF14E991A162AAD64736F6C6343000800 STOP CALLER "
		},
		"gasEstimates": {
			"creation": {
				"codeDepositCost": "172400",
				"executionCost": "40226",
				"totalCost": "212626"
			},
			"external": {
				"add()": "infinite",
				"div()": "infinite",
				"mul()": "infinite",
				"num1()": "1129",
				"num2()": "1107",
				"sub()": "infinite"
			}
		},
		"methodIdentifiers": {
			"add()": "4f2be91f",
			"div()": "f9fa48c3",
			"mul()": "58931c46",
			"num1()": "3b9eac4b",
			"num2()": "15d4266c",
			"sub()": "c54124be"
		}
	},
	"abi": [
		{
			"inputs": [],
			"name": "add",
			"outputs": [
				{
					"internalType": "uint256",
					"name": "",
					"type": "uint256"
				}
			],
			"stateMutability": "view",
			"type": "function"
		},
		{
			"inputs": [],
			"name": "div",
			"outputs": [
				{
					"internalType": "uint256",
					"name": "",
					"type": "uint256"
				}
			],
			"stateMutability": "view",
			"type": "function"
		},
		{
			"inputs": [],
			"name": "mul",
			"outputs": [
				{
					"internalType": "uint256",
					"name": "",
					"type": "uint256"
				}
			],
			"stateMutability": "view",
			"type": "function"
		},
		{
			"inputs": [],
			"name": "num1",
			"outputs": [
				{
					"internalType": "uint256",
					"name": "",
					"type": "uint256"
				}
			],
			"stateMutability": "view",
			"type": "function"
		},
		{
			"inputs": [],
			"name": "num2",
			"outputs": [
				{
					"internalType": "uint256",
					"name": "",
					"type": "uint256"
				}
			],
			"stateMutability": "view",
			"type": "function"
		},
		{
			"inputs": [],
			"name": "sub",
			"outputs": [
				{
					"internalType": "uint256",
					"name": "",
					"type": "uint256"
				}
			],
			"stateMutability": "view",
			"type": "function"
		}
	]
}